{
  "_format": "hh-sol-artifact-1",
  "contractName": "TransactionLedger",
  "sourceName": "contracts/TransactionLedger.sol",
  "abi": [
    {
      "anonymous": false,
      "inputs": [
        {
          "indexed": false,
          "internalType": "string",
          "name": "referenceNumber",
          "type": "string"
        },
        {
          "indexed": false,
          "internalType": "string",
          "name": "typeOfDocument",
          "type": "string"
        },
        {
          "indexed": false,
          "internalType": "string",
          "name": "nameOfStudent",
          "type": "string"
        },
        {
          "indexed": true,
          "internalType": "address",
          "name": "recordedBy",
          "type": "address"
        },
        {
          "indexed": false,
          "internalType": "uint256",
          "name": "timestamp",
          "type": "uint256"
        }
      ],
      "name": "TransactionRecorded",
      "type": "event"
    },
    {
      "inputs": [
        {
          "internalType": "string",
          "name": "_referenceNumber",
          "type": "string"
        },
        {
          "internalType": "string",
          "name": "_typeOfDocument",
          "type": "string"
        },
        {
          "internalType": "string",
          "name": "_nameOfStudent",
          "type": "string"
        },
        {
          "internalType": "string",
          "name": "_studentSONumber",
          "type": "string"
        },
        {
          "internalType": "string",
          "name": "_nameOfSchool",
          "type": "string"
        },
        {
          "internalType": "uint256",
          "name": "_yearGraduated",
          "type": "uint256"
        }
      ],
      "name": "recordTransaction",
      "outputs": [],
      "stateMutability": "nonpayable",
      "type": "function"
    },
    {
      "inputs": [
        {
          "internalType": "string",
          "name": "_referenceNumber",
          "type": "string"
        }
      ],
      "name": "verifyTransaction",
      "outputs": [
        {
          "internalType": "string",
          "name": "referenceNumber",
          "type": "string"
        },
        {
          "internalType": "string",
          "name": "typeOfDocument",
          "type": "string"
        },
        {
          "internalType": "string",
          "name": "nameOfStudent",
          "type": "string"
        },
        {
          "internalType": "string",
          "name": "studentSONumber",
          "type": "string"
        },
        {
          "internalType": "string",
          "name": "nameOfSchool",
          "type": "string"
        },
        {
          "internalType": "uint256",
          "name": "yearGraduated",
          "type": "uint256"
        },
        {
          "internalType": "address",
          "name": "recordedBy",
          "type": "address"
        },
        {
          "internalType": "uint256",
          "name": "timestamp",
          "type": "uint256"
        },
        {
          "internalType": "bool",
          "name": "exists",
          "type": "bool"
        }
      ],
      "stateMutability": "view",
      "type": "function"
    }
  ],
  "bytecode": "0x608060405234801561001057600080fd5b50610d58806100206000396000f3fe608060405234801561001057600080fd5b50600436106100365760003560e01c80636f37ce431461003b578063c425091f14610071575b600080fd5b6100556004803603810190610050919061068a565b61008d565b60405161006897969594939291906107c7565b60405180910390f35b61008b60048036038101906100869190610877565b61033d565b005b606080600060606000806000806000896040516100aa919061096e565b90815260200160405180910390206040518060e00160405290816000820180546100d3906109b4565b80601f01602080910402602001604051908101604052809291908181526020018280546100ff906109b4565b801561014c5780601f106101215761010080835404028352916020019161014c565b820191906000526020600020905b81548152906001019060200180831161012f57829003601f168201915b50505050508152602001600182018054610165906109b4565b80601f0160208091040260200160405190810160405280929190818152602001828054610191906109b4565b80156101de5780601f106101b3576101008083540402835291602001916101de565b820191906000526020600020905b8154815290600101906020018083116101c157829003601f168201915b5050505050815260200160028201548152602001600382018054610201906109b4565b80601f016020809104026020016040519081016040528092919081815260200182805461022d906109b4565b801561027a5780601f1061024f5761010080835404028352916020019161027a565b820191906000526020600020905b81548152906001019060200180831161025d57829003601f168201915b505050505081526020016004820160009054906101000a900473ffffffffffffffffffffffffffffffffffffffff1673ffffffffffffffffffffffffffffffffffffffff1673ffffffffffffffffffffffffffffffffffffffff168152602001600582015481526020016006820160009054906101000a900460ff1615151515815250509050806000015181602001518260400151836060015184608001518560a001518660c00151975097509750975097509750975050919395979092949650565b60008460405161034d919061096e565b908152602001604051809103902060060160009054906101000a900460ff16156103ac576040517f08c379a00000000000000000000000000000000000000000000000000000000081526004016103a390610a31565b60405180910390fd5b6040518060e001604052808581526020018481526020018381526020018281526020013373ffffffffffffffffffffffffffffffffffffffff16815260200142815260200160011515815250600085604051610408919061096e565b9081526020016040518091039020600082015181600001908161042b9190610bfd565b5060208201518160010190816104419190610bfd565b506040820151816002015560608201518160030190816104619190610bfd565b5060808201518160040160006101000a81548173ffffffffffffffffffffffffffffffffffffffff021916908373ffffffffffffffffffffffffffffffffffffffff16021790555060a0820151816005015560c08201518160060160006101000a81548160ff0219169083151502179055509050503373ffffffffffffffffffffffffffffffffffffffff167f2ba15c31f1018cac94e272ce7425bdbfb5a8ccf790bc205ea32b495c58a3f55e858585426040516105229493929190610ccf565b60405180910390a250505050565b6000604051905090565b600080fd5b600080fd5b600080fd5b600080fd5b6000601f19601f8301169050919050565b7f4e487b7100000000000000000000000000000000000000000000000000000000600052604160045260246000fd5b6105978261054e565b810181811067ffffffffffffffff821117156105b6576105b561055f565b5b80604052505050565b60006105c9610530565b90506105d5828261058e565b919050565b600067ffffffffffffffff8211156105f5576105f461055f565b5b6105fe8261054e565b9050602081019050919050565b82818337600083830152505050565b600061062d610628846105da565b6105bf565b90508281526020810184848401111561064957610648610549565b5b61065484828561060b565b509392505050565b600082601f83011261067157610670610544565b5b813561068184826020860161061a565b91505092915050565b6000602082840312156106a05761069f61053a565b5b600082013567ffffffffffffffff8111156106be576106bd61053f565b5b6106ca8482850161065c565b91505092915050565b600081519050919050565b600082825260208201905092915050565b60005b8381101561070d5780820151818401526020810190506106f2565b60008484015250505050565b6000610724826106d3565b61072e81856106de565b935061073e8185602086016106ef565b6107478161054e565b840191505092915050565b6000819050919050565b61076581610752565b82525050565b600073ffffffffffffffffffffffffffffffffffffffff82169050919050565b60006107968261076b565b9050919050565b6107a68161078b565b82525050565b60008115159050919050565b6107c1816107ac565b82525050565b600060e08201905081810360008301526107e1818a610719565b905081810360208301526107f58189610719565b9050610804604083018861075c565b81810360608301526108168187610719565b9050610825608083018661079d565b61083260a083018561075c565b61083f60c08301846107b8565b98975050505050505050565b61085481610752565b811461085f57600080fd5b50565b6000813590506108718161084b565b92915050565b600080600080608085870312156108915761089061053a565b5b600085013567ffffffffffffffff8111156108af576108ae61053f565b5b6108bb8782880161065c565b945050602085013567ffffffffffffffff8111156108dc576108db61053f565b5b6108e88782880161065c565b93505060406108f987828801610862565b925050606085013567ffffffffffffffff81111561091a5761091961053f565b5b6109268782880161065c565b91505092959194509250565b600081905092915050565b6000610948826106d3565b6109528185610932565b93506109628185602086016106ef565b80840191505092915050565b600061097a828461093d565b915081905092915050565b7f4e487b7100000000000000000000000000000000000000000000000000000000600052602260045260246000fd5b600060028204905060018216806109cc57607f821691505b6020821081036109df576109de610985565b5b50919050565b7f5472616e73616374696f6e20616c726561647920657869737473000000000000600082015250565b6000610a1b601a836106de565b9150610a26826109e5565b602082019050919050565b60006020820190508181036000830152610a4a81610a0e565b9050919050565b60008190508160005260206000209050919050565b60006020601f8301049050919050565b600082821b905092915050565b600060088302610ab37fffffffffffffffffffffffffffffffffffffffffffffffffffffffffffffffff82610a76565b610abd8683610a76565b95508019841693508086168417925050509392505050565b6000819050919050565b6000610afa610af5610af084610752565b610ad5565b610752565b9050919050565b6000819050919050565b610b1483610adf565b610b28610b2082610b01565b848454610a83565b825550505050565b600090565b610b3d610b30565b610b48818484610b0b565b505050565b5b81811015610b6c57610b61600082610b35565b600181019050610b4e565b5050565b601f821115610bb157610b8281610a51565b610b8b84610a66565b81016020851015610b9a578190505b610bae610ba685610a66565b830182610b4d565b50505b505050565b600082821c905092915050565b6000610bd460001984600802610bb6565b1980831691505092915050565b6000610bed8383610bc3565b9150826002028217905092915050565b610c06826106d3565b67ffffffffffffffff811115610c1f57610c1e61055f565b5b610c2982546109b4565b610c34828285610b70565b600060209050601f831160018114610c675760008415610c55578287015190505b610c5f8582610be1565b865550610cc7565b601f198416610c7586610a51565b60005b82811015610c9d57848901518255600182019150602085019450602081019050610c78565b86831015610cba5784890151610cb6601f891682610bc3565b8355505b6001600288020188555050505b505050505050565b60006080820190508181036000830152610ce98187610719565b90508181036020830152610cfd8186610719565b9050610d0c604083018561075c565b610d19606083018461075c565b9594505050505056fea2646970667358221220ef2b3093394653d136a67fa756aac441eda1b5332ac410d47726d8ecb06320c564736f6c63430008140033",
  "linkReferences": {},
  "deployedLinkReferences": {}
}